S00F0000363431333131322E73726563B3
S11300000C9410010C942D010C942D010C942D01D1
S11300100C942D010C942D010C942D010C942D01A4
S11300200C942D010C942D010C942D010C942D0194
S11300300C942D010C942D010C942D010C942D0184
S11300400C942D010C942D010C942D010C942D0174
S11300500C942D010C942D010C942D010C942D0164
S11300600C942D010C942D0107634236B79BD8A73D
S11300701A39685618AEBAAB558C1D3CB7CC5763C9
S1130080BD6DEDFD753EF6177231BF000000803F77
S113009008000000BE922449123EABAAAA2ABECD93
S11300A0CCCC4C3E00000080BEABAAAAAA3E000005
S11300B00000BF000000803F0000000000084178FD
S11300C0D3BB4387D1133D190E3CC3BD4282AD2B34
S11300D03E68EC8276BED98FE1A93E4C80EFFFBE2C
S11300E001C4FF7F3F00000000004E414E494E49CD
S11300F05459494E46CDCCCC3D0AD7233C17B7D1F1
S11301003877CC2B329595E6241FB14F0A00002096
S1130110410000C84200401C4620BCBE4CCA1B0E15
S11301205AAEC59D7400407A10F35A00A0724E185E
S1130130090010A5D4E80000E87648170000E40B95
S113014054020000CA9A3B000000E1F5050000805B
S1130150969800000040420F000000A086010000B5
S113016000102700000000E8030000000064000005
S11301700000000A00000000000100000000002C44
S113018076D888DC674F0823DFC1DFAE59E1B1B709
S113019096E5E3E453C63AE651997696E8E6C284D6
S11301A026EB898C9B62ED407C6FFCEFBC9C9F40EE
S11301B0F2BAA56FA5F490055A2AF75C936B6CF913
S11301C0676DC11BFCE0E40D47FEF520E6B500D0E9
S11301D0ED902E0300943577050080841E080000FE
S11301E0204E0A000000C80C333333330F986E12CC
S11301F0831141EF8D2114893BE65516CFFEE6DBD2
S113020018D1844B381BF77C1D901DA4BBE424201B
S11302103284725E228100C9F124ECA1E53D2700FD
S113022011241FBECFEFD8E0DEBFCDBF11E0A0E0A8
S1130230B1E0EEEBFDE102C005900D92A033B107F1
S1130240D9F721E0A0E3B1E001C01D92A333B207C6
S1130250E1F70E9446050C94DD0E0C9400009BB15E
S11302609F709BB99BB1282F207F922B9BB998B18B
S1130270926098B9000098B19D7F98B931E23A959F
S1130280F1F700009BB19F709BB92BB130E1839FC4
S1130290C0011124822B8BB988B1826088B9000017
S11302A088B18D7F88B981E28A95F1F700000895BD
S11302B098B19E7F98B90E942F01089598B19160DA
S11302C098B90E942F01089581E00E94580188EA9C
S11302D091E00197F1F700C0000008958CE00E94BE
S11302E0580180E18A95F1F700C008958AB1806FC2
S11302F08AB987B1836087B988B18D7F88B983EF64
S113030091E00197F1F700C0000083E30E945801D7
S113031082E30E94580188E20E9458018EE00E9404
S1130320580186E00E9458010E9464010895CF9309
S1130330DF9300D000D0CDB7DEB790E8998390EC7E
S11303409A8394E99B8394ED9C83E62FF0E03197A4
S113035021E030E02C0F3D1FE20FF31F9081890F45
S113036081500E94580131E23A95F1F700000F9054
S11303700F900F900F90DF91CF9108950F931F93DB
S1130380CF93DF938C01C0E0D0E003C00E945E01F4
S11303902196F801EC0FFD1F80818111F7CFDF91C9
S11303A0CF911F910F91089580EF84B98FEF85B994
S11303B0089585B18F7085B9000083B18F708F3037
S11303C0C1F787E893E10197F1F700C0000083B11A
S11303D08F708F30B1F387E893E10197F1F700C094
S11303E0000083B18FE785B987E893E10197F1F7BE
S11303F000C0000083B18F708F3021F58FEB85B979
S113040087E893E10197F1F700C0000083B18F7092
S11304108F30D1F48FED85B987E893E10197F1F737
S113042000C0000083B18F708F3081F48FEE85B9E6
S113043087E893E10197F1F700C0000083B18F7062
S1130440E3E005C0E0E003C0E1E001C0E2E08E309B
S113045059F4F0E0EE0FFF1FEE0FFF1FE15EFE4FB9
S113046080818093300108958D3059F4F0E0EE0FCF
S1130470FF1FEE0FFF1FE15EFE4F8181809330016D
S113048008958B3059F4F0E0EE0FFF1FEE0FFF1FBD
S1130490E15EFE4F8281809330010895873051F4EC
S11304A0F0E0EE0FFF1FEE0FFF1FE15EFE4F8381B2
S11304B08093300108950F931F93CF93DF93CDB7AB
S11304C0DEB760970FB6F894DEBF0FBECDBF0E94B3
S11304D0D1058E010F5F1F4F22E045E00E94E10A23
S11304E0C8010E94BE0160960FB6F894DEBF0FBE2D
S11304F0CDBFDF91CF911F910F910895CF93DF93DB
S1130500EC010E94640164E081E00E949701CE0145
S11305100E94BE012FE78AE196E02150804090407E
S1130520E1F700C000000E94640161E081E00E94E4
S11305309701DF91CF9108958D3269F028F48A32C2
S113054081F08B3241F00AC08F3259F08E3531F48C
S113055083E090E0089581E090E0089580E090E0E9
S1130560089582E090E008952F923F924F925F9217
S11305706F927F928F929F92AF92BF92CF92DF92AF
S1130580EF92FF920F931F93CF93DF93CDB7DEB714
S1130590EDE28E16C1F0E82D992E782E672E562E98
S11305A0452E342E232E822EEE3228F4EA3271F0B8
S11305B0EB3231F04FC0EF3261F0EE3571F14AC0E9
S11305C00E94B40A4FC00E94BD0A4CC00E94840914
S11305D049C02A2D3B2D4C2D5D2D6E2D7F2D802F56
S11305E0912FA0E00E94C60A59F0282D322D432DE8
S11305F0542D652D762D872D992D0E94DF0932C04B
S113060080E091E00E947E0220E030E040E050E093
S113061060E070E080E090E025C02A2D3B2D4C2D59
S11306205D2D6E2D7F2D802F912F0E94D1056B01A2
S11306307C01282D322D432D542D652D762D872DAB
S1130640992D0E94D105A70196010E9447060E9498
S1130650950508C020E030E040E050E060E070E044
S113066080E090E0DF91CF911F910F91FF90EF9088
S1130670DF90CF90BF90AF909F908F907F906F90BE
S11306805F904F903F902F9008952F923F924F92FA
S11306905F926F927F928F929F92AF92BF92CF920E
S11306A0DF92EF92FF920F931F93CF93DF93CDB717
S11306B0DEB7C859D1090FB6F894DEBF0FBECDBF5F
S11306C01C01412C512C00E010E0E12CF12C612C98
S11306D0712C41C190ED980F9A3008F063C0CD564B
S11306E0DF4F88819981C359D0400E94010B0E9439
S11306F09505922E832EA42EB52EB62FA72FCF5656
S1130700DF4F8883C159D040CD56DF4F9883C359FA
S1130710D04001151105A1F00E946D0A922E832E7E
S1130720A42EB52EB62FA72FCF56DF4F8883C159DD
S1130730D040CD56DF4F9883C359D04000E010E03D
S113074063012FEFC21AD20A660C771C660C771C61
S1130750660C771CE1E0F0E0EC0FFD1FE60DF71DE1
S113076090828182A282B382B483A583CF56DF4F65
S11307708881C159D0408683CD56DF4F9881C359B3
S1130780D040978303C0EFEF4E1A5E0AF101E40DE7
S1130790F51D808180538A30B0F3F1E04F1A51087F
S11307A03601D6C08B3249F08D3239F08A3229F0C5
S11307B08F3219F08E3509F0CBC041145104B9F0D1
S11307C00CF46CC0C956DF4FE881F981C759D04099
S11307D03197E20DF31D90819B3249F09D3239F03F
S11307E09A3229F09F3219F09E3509F057C08D32A4
S11307F009F4ACC08B3209F4ABC08FE091E00E94E5
S11308007E022AC1C3010197CB56DF4F99838883A7
S1130810C559D040FC01EE0FFF1FEE0FFF1FEE0F76
S1130820FF1F81E090E08C0F9D1FE80FF91FA0804F
S1130830B180C280D380E480F5800681178192E084
S1130840691A7108660C771C660C771C660C771C99
S1130850E1E0F0E0EC0FFD1F6E0E7F1EF30120813E
S113086031814281538164817581868197810E949F
S1130870B402F301208331834283538364837583F9
S113088086839783CF56DF4FE880F980C159D040E3
S1130890CB56DF4F68807980C559D0401E141F04A1
S11308A004F5C7010197CF56DF4F99838883C15957
S11308B0D040E1E8F0E0EC0FFD1FE80FF91F808065
S11308C0882D0E949C028C01CD56DF4FE881F9816E
S11308D0C359D04080810E949C02081719070CF06C
S11308E091CFCD56DF4FE881F981C359D040808143
S11308F08A3211F08F32E9F441145104A9F0CCF09A
S1130900C956DF4FE881F981C759D0403197E20DCC
S1130910F31D90819B3241F09D3231F09A3221F0E7
S11309209F3211F09E3529F48FE091E00E947E02FF
S113093093C0E1E8F0E0EC0FFD1FEE0DFF1D808396
S1130940C70101967C0100E010E002C001E010E064
S11309509FEF491A590AC956DF4F59824882C7592D
S1130960D040F101E40DF51DCD56DF4FF983E88346
S1130970C359D04080818111ADCE270148C01301F5
S1130980F1E02F1A3108F101EE0FFF1FEE0FFF1FE8
S1130990EE0FFF1F81E090E08C0F9D1FE80FF91F01
S11309A0A080B180C280D380E480F5800681178165
S11309B092E0691A7108660C771C660C771C660C49
S11309C0771CE1E0F0E0EC0FFD1F6E0E7F1EF301DB
S11309D0208131814281538164817581F1E04F1A14
S11309E05108E1E8F0E0EC0FFD1FE40DF51D8080F7
S11309F0F301868197810E94B402F301208331833D
S1130A0042835383648375838683978331011414EB
S1130A1015040CF4B4CF0E94640162E081E00E94EA
S1130A2097018CE191E00E94BE0129813A814B81BA
S1130A305C816D817E818F8198850E945B02FFE7D6
S1130A402AE186E0F15020408040E1F700C0000038
S1130A5061E081E00E949701C856DF4F0FB6F89419
S1130A60DEBF0FBECDBFDF91CF911F910F91FF90DD
S1130A70EF90DF90CF90BF90AF909F908F907F903A
S1130A806F905F904F903F902F900895CF93DF9396
S1130A90CDB7DEB760970FB6F894DEBF0FBECDBFFB
S1130AA00E9476010E946E0161E081E00E9497013C
S1130AB00E94D40100E010E00E94D901809130012D
S1130AC090ED980F9A3060F08E3251F08B3241F0F5
S1130AD08D3231F08A3221F08F3211F08E3569F483
S1130AE00E945E01E1E0F0E0EC0FFD1FE00FF11F5A
S1130AF08091300180830F5F1F4F809130018D33CF
S1130B0069F4E1E0F0E0EC0FFD1FE00FF11F10824B
S1130B10CE0101960E94450300E010E087EA91E6C9
S1130B200197F1F700C00000C7CFBEE304D008F47A
S1130B3090E80895BFE322273327A9010E942D06D8
S1130B4060F19F5748F1B91740F1BFE3B91B9927EA
S1130B50B8503AF4660F771F881F991FB395D2F3E4
S1130B6016C0B8504AF0232F342F452F562F672F25
S1130B70782F8827B850BAF7B85F49F086957795EB
S1130B8067955795479537952795BA95B9F716F40C
S1130B900E94150688940895889460E070E0CB0163
S1130BA0089597FB16F40E9415060C94D805E89452
S1130BB0F92F96EBFF2381F0121613061406440B4B
S1130BC09395F69587957795679557954040FF23BC
S1130BD0B9F71BC099270895882351F49850D2F788
S1130BE0872B762F652F542F432F322F20E0B1F31C
S1130BF0121613061406440B88233AF09A95440FF0
S1130C00551F661F771F881FCAF755234AF4440FE0
S1130C10551F11F460FF04C06F5F7F4F8F4F9F4FCC
S1130C20880F9695879597F9089590958095709576
S1130C30609550954095309521953F4F4F4F5F4FAC
S1130C406F4F7F4F8F4F9F4F089557FD9058440F1C
S1130C50551F59F05F3F71F04795880F97FB991F17
S1130C6061F09F3F79F087950895121613061406D4
S1130C70551FF2CF4695F1DF08C016161706180661
S1130C80991FF1CF86957105610508940895FA01BD
S1130C90EE0FFF1F309621053105A1F16115710595
S1130CA061F48038BFE39B0749F16894903881056B
S1130CB061F08038BFEF9B0741F099234AF5FF3F6D
S1130CC0E1053105210519F1E8940894E795D90166
S1130CD0AA2329F4AB2FBE2FF85FD0F310C0FF5F17
S1130CE070F4A695E0F7F73950F019F0FF3A38F4AC
S1130CF09F779F930DD00F9007FC9058089546F06E
S1130D000C94D70660E070E080E89FE308954FE715
S1130D109F775F934F933F932F930E9452072F9196
S1130D203F914F915F910E94CE070C949F0629F446
S1130D3016F00C94D1060C9401070C94D7060E946B
S1130D402D06A8F39638A0F707F80F92E8942BE342
S1130D503AEA48EB5FE70E94E4070F920F920F9282
S1130D604DB75EB70F920E949A07E8E6F0E00E9442
S1130D70DA064F915F91EF91FF91E595EE1FFF1F0A
S1130D8049F0FE57E0684427EE0F441FFA95E1F757
S1130D904195550B0E9414070F9007FE0C94080709
S1130DA0089597F99F6780E870E060E008959FEFE9
S1130DB080EC0895DF93CF931F930F93FF92EF92EC
S1130DC0DF927B018C01689406C0DA2EEF010E9449
S1130DD0E107FE01E894A59125913591459155913E
S1130DE0A6F3EF010E945308FE019701A801DA94CB
S1130DF069F7DF90EF90FF900F911F91CF91DF91F2
S1130E000895E894BB2766277727CB0197F90895BF
S1130E109B01AC0160E070E080E89FE30C94A808BB
S1130E200C94D1060C9457090E942D06D8F39923EB
S1130E30C9F3940F511DA3F39150504094F059F00D
S1130E40882332F0660F771F881F91505040C1F7F6
S1130E509E3F51052CF7880F911D9695879597F91C
S1130E6008955F3FACF0983E9CF0BB27869577953C
S1130E706795B79508F4B1609395C1F7BB0F58F720
S1130E8011F460FFE8CF6F5F7F4F8F4F9F4FE3CF29
S1130E900C94020716F00C9457090C94D706689426
S1130EA00C94D1060E942D06A8F39923C1F3AEF346
S1130EB0DF93CF931F930F93FF92C92FDD278823CE
S1130EC02AF02197660F771F881FDAF720E030E0B9
S1130ED040E85FEB9FE3883920F0803E38F02196AC
S1130EE08F770E943C08E0E9F0E004C00E943C08CF
S1130EF0EDEBF0E00E94DA068B01BE01EC01FB2E63
S1130F006F5771097595771F880B990B0E941C09FF
S1130F1028E132E741E35FE30E94E107AF2D980146
S1130F20AE01FF900F911F91CF91DF910E94530862
S1130F300C947309FA01DC01AA0FBB1F9B01AC01DD
S1130F40BF5728F4222733274427507820C0B751AD
S1130F5090F4AB2F0024469537952795011CA39553
S1130F60D2F3002071F0220F331F441FB395DAF33C
S1130F700ED00C943B0861307105A0E88A07B9468D
S1130F8030F49B01AC016627772788279078309648
S1130F9021F0208331834283538308950E94E10723
S1130FA00C9473090E94650938F00E946C0920F0C2
S1130FB0952311F00C94D1060C94D70611240C94AB
S1130FC002070E94250670F3959FC1F3950F50E028
S1130FD0551F629FF001729FBB27F00DB11D639FE7
S1130FE0AA27F00DB11DAA1F649F6627B00DA11D8D
S1130FF0661F829F2227B00DA11D621F739FB00D33
S1131000A11D621F839FA00D611D221F749F3327A2
S1131010A00D611D231F849F600D211D822F762F3B
S11310206A2F11249F5750409AF0F1F088234AF018
S1131030EE0FFF1FBB1F661F771F881F9150504084
S1131040A9F79E3F510580F00C94D1060C94020739
S11310505F3FE4F3983ED4F3869577956795B7950B
S1131060F795E7959F5FC1F7FE2B880F911D969525
S1131070879597F908955058BB27AA270E945308CB
S11310800C9473090E94650938F00E946C0920F0E1
S113109039F49F3F19F426F40C94D7060EF4E09526
S11310A0E7FB0C94D106E92F0E94250658F3BA17E2
S11310B0620773078407950720F079F4A6F50C946A
S11310C001070EF4E0950B2EBA2FA02D0B01B901E8
S11310D090010C01CA01A0011124FF27591B99F0AA
S11310E0593F50F4503E68F11A16F040A22F232FB6
S11310F0342F4427585FF3CF469537952795A79506
S1131100F0405395C9F77EF41F16BA0B620B730BAC
S1131110840BBAF09150A1F0FF0FBB1F661F771F1D
S1131120881FC2F70EC0BA0F621F731F841F48F4D2
S1131130879577956795B795F7959E3F08F0B0CF5B
S11311409395880F08F09927EE0F97958795089542
S11311500E94BC080C9473090E946C0958F00E9408
S1131160650940F029F45F3F29F00C94D106511130
S11311700C9402070C94D7060E94250668F3992361
S1131180B1F3552391F3951B550BBB27AA2762177F
S11311907307840738F09F5F5F4F220F331F441F8C
S11311A0AA1FA9F335D00E2E3AF0E0E832D09150C0
S11311B05040E695001CCAF72BD0FE2F29D0660FAD
S11311C0771F881FBB1F261737074807AB07B0E8F0
S11311D009F0BB0B802DBF01FF2793585F4F3AF0F6
S11311E09E3F510578F00C94D1060C9402075F3FA2
S11311F0E4F3983ED4F3869577956795B795F7957C
S11312009F5FC9F7880F911D9695879597F9089563
S1131210E1E0660F771F881FBB1F621773078407FF
S1131220BA0720F0621B730B840BBA0BEE1F88F70E
S1131230E0950895E89409C097FB3EF49095809555
S1131240709561957F4F8F4F9F4F9923A9F0F92F88
S113125096E9BB279395F695879577956795B79506
S1131260F111F8CFFAF4BB0F11F460FF1BC06F5FEC
S11312707F4F8F4F9F4F16C0882311F096E911C0FE
S1131280772321F09EE8872F762F05C0662371F01F
S113129096E8862F70E060E02AF09A95660F771F33
S11312A0881FDAF7880F9695879597F908959F3FD9
S11312B031F0915020F4879577956795B795880F0D
S11312C0911D9695879597F9089500240A9416160A
S11312D0170618060906089500240A941216130620
S11312E0140605060895092E0394000C11F48823AE
S11312F052F0BB0F40F4BF2B11F460FF04C06F5FCA
S11313007F4F8F4F9F4F0895DF93CF931F930F937A
S11313109A9DF02D219FF00D8B9DF00D8A9DE02D5F
S1131320F10D039FF00D029FE00DF11D4E9DE00DA8
S1131330F11D5E9DF00D4F9DF00D7F936F93BF9255
S1131340AF925F934F93D5010E94D20A8B01AC01F7
S1131350D7010E94D20AEB01E80FF91FD6010E94BF
S1131360D4092F913F91D6010E94D20AC60FD71FEC
S1131370E81FF91FAF91BF910E94D4092F913F91AB
S11313800E94D20AC60FD71FE81FF91FD6010E9478
S1131390D20AE60FF71F9801BE01CF0111240F9165
S11313A01F91CF91DF9108950E94D20A460F571FD3
S11313B0C81FD91F08F431960895689401C0E894B1
S11313C0F92FF12B12F00C94110AA0E0B0E0EBEE2F
S11313D0F9E00C94830A092E059422F40E946D0A04
S11313E0112392F4F0E80F26FFEFE094F0940095B7
S11313F01095B094C094D094A194BF0ACF0ADF0A88
S1131400EF0AFF0A0F0B1F0B0E941C0A07FC0E9425
S11314106D0ACDB7DEB7ECE00C949F0A689401C066
S1131420E8948F929F92CF93DF930E941C0ADF91DE
S1131430CF919F908F90089588249924F401E4011A
S1131440B0E49F93AA279A158B049C04ED05FE052E
S1131450CF05D007A10798F4AD2FDC2FCF2FFE2F97
S1131460E92D982C892E982F872F762F652F542FAE
S1131470432F322F2227B85031F7BF9127C01B2E9C
S1131480BF91BB27220F331F441F551F661F771FB1
S1131490881F991F881C991CEE1FFF1FCC1FDD1F7E
S11314A0AA1FBB1F8A149B04EC05FD05CE05DF05AE
S11314B0A007B10748F08A189B08EC09FD09CE097A
S11314C0DF09A00BB10B21601A94E1F62EF494010C
S11314D0AF01BE01CD01000C089560957095809513
S11314E0909530954095509521953F4F4F4F5F4FC4
S11314F06F4F7F4F8F4F9F4F08952F923F924F9280
S11315005F926F927F928F929F92AF92BF92CF928F
S1131510DF92EF92FF920F931F93CF93DF93CDB798
S1131520DEB7CA1BDB0B0FB6F894DEBF0FBECDBF10
S113153009942A88398848885F846E847D848C84E1
S11315409B84AA84B984C884DF80EE80FD800C81EA
S11315501B81AA81B981CE0FD11D0FB6F894DEBFCD
S11315600FBECDBFED0108952A0D3B1D4C1D5D1D21
S11315706E1D7F1D801F911F08952A193B094C0978
S11315805D096E097F09800B910B08950024A7FD66
S113159000942A1730054005500560057005800544
S11315A090050895A29FB001B39FC001A39F700D41
S11315B0811D1124911DB29F700D811D1124911D57
S11315C00895EF920F931F93CF93DF93E80147FDA4
S11315D002C034E001C034E1042E000C550B57FF67
S11315E003C0519541955109E32E022F242FAE01DA
S11315F00E94050BCE01DF91CF911F910F91EF90C7
S11316000895662777270C945F0CA9E0B0E0EBE01F
S1131610FBE00C94830A6A01122FB02E2BE32017EF
S113162020F0FF24F394F00E02C02CE3F22E0F2DD1
S113163027E0AE014F5F5F4F0E94AD0DBC014981B1
S1131640842F8970813031F0E1FC06C0E0FE06C0D1
S113165090E205C09DE203C09BE201C090E05E2DD4
S1131660507143FF3CC0911102C083E001C084E08B
S1131670811718F4212F281B01C020E051110BC041
S1131680F601822F30E2882319F031938150FBCF89
S1131690C20ED11C20E0992329F0D6019C93F601B7
S11316A031966F01C6010396E2FE0AC03EE4D601FC
S11316B03C9341E411964C93119712963C9306C0C7
S11316C03EE6F601308341E641833283FC01322F4A
S11316D040E2332309F442C041933150FACF42FF30
S11316E044C0911102C083E001C084E0811718F462
S11316F0212F281B01C020E051110BC0F601822FBD
S113170030E2882319F031938150FBCFC20ED11CF3
S113171020E0992329F0D6019C93F60131966F01BC
S1131720C6010396E2FE0BC039E4D6013C933EE4C5
S113173011963C93119736E412963C9307C039E610
S1131740F60130833EE6318336E63283FC01322FE4
S113175040E2332319F041933150FBCFFC01E20FF7
S1131760F11D10828EEF9FEFA6C021E030E09111B1
S113177002C020E030E0161617061CF4FB01319677
S113178002C0E1E0F0E02E0F3F1FBB2021F0EB2D63
S1131790F0E0319602C0E0E0F0E02E0F3F1FE12FB1
S11317A0F0E02E173F071CF4121B212F01C020E08C
S11317B08E2D887159F4F601822F30E2882319F0B6
S11317C031938150FBCFC20ED11C20E0992329F024
S11317D0D6019C93F60131966F0151110BC0F601AD
S11317E0822F90E3882319F091938150FBCFC20E8E
S11317F0D11C20E00F2D060F9A81342F307144FF45
S113180003C0913309F40150101624F4093018F080
S113181008E001C001E0AB0177FF02C040E050E006
S1131820FB01E41BF50BA1E0B0E0AC0FBD1FEA0F18
S1131830FB1F8EE2A82E4B01801A91080B2D10E09D
S11318401195019511094F3FBFEF5B0721F4D601B4
S1131850AC9211966D01641775072CF084169506E9
S113186014F4818101C080E3415051093196D601BD
S113187011967D014017510724F0D6018C9367011E
S1131880E2CF6417750739F4963320F4953319F4CD
S1131890311101C081E3F6018083F701822F90E2C8
S11318A0882319F091938150FBCFF701E20FF11DCA
S11318B0108280E090E02996ECE00C949F0AA0E06E
S11318C0B0E0E5E6FCE00C94830AEC016B016115E1
S11318D0710519F0FB01918380837E01FFEFEF1AFC
S11318E0FF0A0881802F90E00E94850E892B11F059
S11318F0E701F3CF0D3239F47E0182E0E80EF11CEA
S1131900098111E008C00B3229F47E0192E0E90E4E
S1131910F11C098110E0E701219743E050E062EFF8
S113192070E0CE010E948E0E892BC1F4239645E00F
S113193050E06DEE70E0CE010E948E0E892B09F40A
S11319402596C114D10419F0F601D183C083111175
S1131950F6C060E070E080E89FE7FAC043E050E042
S11319606AEE70E0CE010E948E0E892B59F4C114E8
S1131970D10409F4E9C0F2E0EF0EF11CF601F182A2
S1131980E082E2C020E030E0A901C0E0D0E0F7014D
S113199080EDA82EA00E89E08A1530F1912F926077
S11319A0B92E812F887012FF04C0811124C02196A2
S11319B022C081112197A5E0B0E00E94D20EDC0183
S11319C0CB01880F991FAA1FBB1F9C01AD012A0DD3
S11319D0311D411D511D283989E93807480789E11E
S11319E0580748F0166006C09EEFA9120AC013FDFE
S11319F040C01860B12E8FEFE81AF80A00811B2D41
S1131A00C6CF802F8F7D8534A1F580818D3211F46E
S1131A10106106C08B3221F0319661E070E004C0A1
S1131A208181329662E070E080538A3018F0E61BC0
S1131A30F70B1FC060E070E060389CE079075CF44D
S1131A40DB01AA0FBB1FAA0FBB1F6A0F7B1F660F08
S1131A50771F680F711D3196DF0111978C918053A8
S1131A608A3050F314FF03C0719561957109C60F54
S1131A70D71F11FF08C0C114D10429F0CF01019769
S1131A80F60191838083CA01B9010E941A09212FAA
S1131A902370233019F04B015C0106C04B015C013B
S1131AA0B7FAB094B7F8B09420E030E0A901C501CA
S1131AB0B4010E94A60E882309F43EC0D7FF06C0D5
S1131AC0D195C195D10909E011E002C001E211E00C
S1131AD06801F8E1CF1AD10890E2E92EF12CCE1575
S1131AE0DF0574F0F8012591359145915491C501B4
S1131AF0B4010E94CE074B015C01CE19DF09EFCF80
S1131B0004501109F594E7940C151D0541F78A2D2D
S1131B10880F8B2D881F8F3F49F020E030E0A9010A
S1131B20C501B4010E94A60E811106C082E290E0B4
S1131B309093320180933101C501B40109C060E082
S1131B4070E080E89FEF04C060E070E080EC9FE705
S1131B50CDB7DEB7ECE00C949F0A283008F027E0FC
S1131B603327DA01990F311D87FD916000966105D5
S1131B70710539F432602E5F3D9330E32A95E1F725
S1131B8008959F3F30F080387105610509F03C5F8E
S1131B903C5F3D93913008F08068911DDF93CF93B3
S1131BA01F930F93FF92EF92192F987F9695E92F29
S1131BB096959695E90FFF27E158FE4F992733270D
S1131BC0EE24FF24A701E70105900894079428F464
S1131BD0360FE71EF81E491F511D660F771F881F19
S1131BE0991F0694A1F70590079428F4E70EF81EB0
S1131BF0491F561FC11D770F881F991F661F069422
S1131C00A1F70590079428F4F80E491F561FC71F23
S1131C10D11D880F991F661F771F0694A1F70590A1
S1131C20079420F4490F561FC71FD81F990F661F2A
S1131C30771F881F0694A9F784911095177041F0B7
S1131C40D695C79557954795F794E7941A95C1F794
S1131C50E5E2F1E0689415901591359165919591BF
S1131C6005907FE27395E118F10A430B560BC90BFB
S1131C70D009C0F7E10CF11E431F561FC91FD01D28
S1131C807EF4703311F48A95E6CFE894015030F075
S1131C90080F0AF40027021708F4202F2395022FB7
S1131CA07A3328F079E37D932A95E9F710C07D9380
S1131CB02A9589F6069497956795379517951794FD
S1131CC0E118F10A430B560BC90BD00998F0239580
S1131CD07E9173957A3308F070E37C932013B8F700
S1131CE07E9170617D9330F0839571E37D9370E311
S1131CF02A95E1F71124EF90FF900F911F91CF9156
S1131D00DF91992787FD9095089591110C94CF0E3A
S1131D10803219F089508550C8F70895FB01DC0121
S1131D204150504088F08D9181341CF08B350CF477
S1131D30805E659161341CF06B350CF4605E861B2B
S1131D40611171F3990B0895881BFCCF0E94AB0EAF
S1131D5008F481E00895990F0008550FAA0BE0E8F4
S1131D60FEEF16161706E807F907C0F01216130659
S1131D70E407F50798F0621B730B840B950B39F499
S1131D800A2661F0232B242B252B21F408950A26FF
S1131D9009F4A140A6958FEF811D811D089599270F
S1131DA0882708950E94D20AA59F900DB49F900D94
S1111DB0A49F800D911D11240895F894FFCF77
S1131DBE4469766973696F6E20627920302100530D
S1131DCE796E746178204572726F72003D3A0031FB
S1131DDE32332B3435362D3738392A3D305E2F00C9
S9030000FC
